{
  "_format": "hh-sol-artifact-1",
  "contractName": "PolygonDomains",
  "sourceName": "contracts/Domain.sol",
  "abi": [
    {
      "inputs": [
        {
          "internalType": "string",
          "name": "_tld",
          "type": "string"
        }
      ],
      "stateMutability": "payable",
      "type": "constructor"
    },
    {
      "anonymous": false,
      "inputs": [
        {
          "indexed": true,
          "internalType": "address",
          "name": "owner",
          "type": "address"
        },
        {
          "indexed": true,
          "internalType": "address",
          "name": "approved",
          "type": "address"
        },
        {
          "indexed": true,
          "internalType": "uint256",
          "name": "tokenId",
          "type": "uint256"
        }
      ],
      "name": "Approval",
      "type": "event"
    },
    {
      "anonymous": false,
      "inputs": [
        {
          "indexed": true,
          "internalType": "address",
          "name": "owner",
          "type": "address"
        },
        {
          "indexed": true,
          "internalType": "address",
          "name": "operator",
          "type": "address"
        },
        {
          "indexed": false,
          "internalType": "bool",
          "name": "approved",
          "type": "bool"
        }
      ],
      "name": "ApprovalForAll",
      "type": "event"
    },
    {
      "anonymous": false,
      "inputs": [
        {
          "indexed": true,
          "internalType": "address",
          "name": "from",
          "type": "address"
        },
        {
          "indexed": true,
          "internalType": "address",
          "name": "to",
          "type": "address"
        },
        {
          "indexed": true,
          "internalType": "uint256",
          "name": "tokenId",
          "type": "uint256"
        }
      ],
      "name": "Transfer",
      "type": "event"
    },
    {
      "inputs": [
        {
          "internalType": "address",
          "name": "to",
          "type": "address"
        },
        {
          "internalType": "uint256",
          "name": "tokenId",
          "type": "uint256"
        }
      ],
      "name": "approve",
      "outputs": [],
      "stateMutability": "nonpayable",
      "type": "function"
    },
    {
      "inputs": [
        {
          "internalType": "address",
          "name": "owner",
          "type": "address"
        }
      ],
      "name": "balanceOf",
      "outputs": [
        {
          "internalType": "uint256",
          "name": "",
          "type": "uint256"
        }
      ],
      "stateMutability": "view",
      "type": "function"
    },
    {
      "inputs": [
        {
          "internalType": "string",
          "name": "",
          "type": "string"
        }
      ],
      "name": "domainsToAddress",
      "outputs": [
        {
          "internalType": "address",
          "name": "",
          "type": "address"
        }
      ],
      "stateMutability": "view",
      "type": "function"
    },
    {
      "inputs": [
        {
          "internalType": "string",
          "name": "name",
          "type": "string"
        }
      ],
      "name": "getAddress",
      "outputs": [
        {
          "internalType": "address",
          "name": "",
          "type": "address"
        }
      ],
      "stateMutability": "view",
      "type": "function"
    },
    {
      "inputs": [
        {
          "internalType": "uint256",
          "name": "tokenId",
          "type": "uint256"
        }
      ],
      "name": "getApproved",
      "outputs": [
        {
          "internalType": "address",
          "name": "",
          "type": "address"
        }
      ],
      "stateMutability": "view",
      "type": "function"
    },
    {
      "inputs": [
        {
          "internalType": "string",
          "name": "name",
          "type": "string"
        }
      ],
      "name": "getRecord",
      "outputs": [
        {
          "internalType": "string",
          "name": "",
          "type": "string"
        }
      ],
      "stateMutability": "view",
      "type": "function"
    },
    {
      "inputs": [
        {
          "internalType": "address",
          "name": "owner",
          "type": "address"
        },
        {
          "internalType": "address",
          "name": "operator",
          "type": "address"
        }
      ],
      "name": "isApprovedForAll",
      "outputs": [
        {
          "internalType": "bool",
          "name": "",
          "type": "bool"
        }
      ],
      "stateMutability": "view",
      "type": "function"
    },
    {
      "inputs": [],
      "name": "name",
      "outputs": [
        {
          "internalType": "string",
          "name": "",
          "type": "string"
        }
      ],
      "stateMutability": "view",
      "type": "function"
    },
    {
      "inputs": [
        {
          "internalType": "uint256",
          "name": "tokenId",
          "type": "uint256"
        }
      ],
      "name": "ownerOf",
      "outputs": [
        {
          "internalType": "address",
          "name": "",
          "type": "address"
        }
      ],
      "stateMutability": "view",
      "type": "function"
    },
    {
      "inputs": [
        {
          "internalType": "string",
          "name": "name",
          "type": "string"
        }
      ],
      "name": "price",
      "outputs": [
        {
          "internalType": "uint256",
          "name": "",
          "type": "uint256"
        }
      ],
      "stateMutability": "pure",
      "type": "function"
    },
    {
      "inputs": [
        {
          "internalType": "string",
          "name": "",
          "type": "string"
        }
      ],
      "name": "records",
      "outputs": [
        {
          "internalType": "string",
          "name": "",
          "type": "string"
        }
      ],
      "stateMutability": "view",
      "type": "function"
    },
    {
      "inputs": [
        {
          "internalType": "string",
          "name": "name",
          "type": "string"
        }
      ],
      "name": "register",
      "outputs": [],
      "stateMutability": "payable",
      "type": "function"
    },
    {
      "inputs": [
        {
          "internalType": "address",
          "name": "from",
          "type": "address"
        },
        {
          "internalType": "address",
          "name": "to",
          "type": "address"
        },
        {
          "internalType": "uint256",
          "name": "tokenId",
          "type": "uint256"
        }
      ],
      "name": "safeTransferFrom",
      "outputs": [],
      "stateMutability": "nonpayable",
      "type": "function"
    },
    {
      "inputs": [
        {
          "internalType": "address",
          "name": "from",
          "type": "address"
        },
        {
          "internalType": "address",
          "name": "to",
          "type": "address"
        },
        {
          "internalType": "uint256",
          "name": "tokenId",
          "type": "uint256"
        },
        {
          "internalType": "bytes",
          "name": "data",
          "type": "bytes"
        }
      ],
      "name": "safeTransferFrom",
      "outputs": [],
      "stateMutability": "nonpayable",
      "type": "function"
    },
    {
      "inputs": [
        {
          "internalType": "address",
          "name": "operator",
          "type": "address"
        },
        {
          "internalType": "bool",
          "name": "approved",
          "type": "bool"
        }
      ],
      "name": "setApprovalForAll",
      "outputs": [],
      "stateMutability": "nonpayable",
      "type": "function"
    },
    {
      "inputs": [
        {
          "internalType": "string",
          "name": "name",
          "type": "string"
        },
        {
          "internalType": "string",
          "name": "record",
          "type": "string"
        }
      ],
      "name": "setRecord",
      "outputs": [],
      "stateMutability": "nonpayable",
      "type": "function"
    },
    {
      "inputs": [
        {
          "internalType": "bytes4",
          "name": "interfaceId",
          "type": "bytes4"
        }
      ],
      "name": "supportsInterface",
      "outputs": [
        {
          "internalType": "bool",
          "name": "",
          "type": "bool"
        }
      ],
      "stateMutability": "view",
      "type": "function"
    },
    {
      "inputs": [],
      "name": "symbol",
      "outputs": [
        {
          "internalType": "string",
          "name": "",
          "type": "string"
        }
      ],
      "stateMutability": "view",
      "type": "function"
    },
    {
      "inputs": [],
      "name": "tld",
      "outputs": [
        {
          "internalType": "string",
          "name": "",
          "type": "string"
        }
      ],
      "stateMutability": "view",
      "type": "function"
    },
    {
      "inputs": [
        {
          "internalType": "uint256",
          "name": "tokenId",
          "type": "uint256"
        }
      ],
      "name": "tokenURI",
      "outputs": [
        {
          "internalType": "string",
          "name": "",
          "type": "string"
        }
      ],
      "stateMutability": "view",
      "type": "function"
    },
    {
      "inputs": [
        {
          "internalType": "address",
          "name": "from",
          "type": "address"
        },
        {
          "internalType": "address",
          "name": "to",
          "type": "address"
        },
        {
          "internalType": "uint256",
          "name": "tokenId",
          "type": "uint256"
        }
      ],
      "name": "transferFrom",
      "outputs": [],
      "stateMutability": "nonpayable",
      "type": "function"
    }
  ],
  "bytecode": "0x6080604052604051806108a0016040528061086b8152602001620049fa61086b913960099081620000319190620004da565b506040518060400160405280600d81526020017f3c2f746578743e3c2f7376673e00000000000000000000000000000000000000815250600a9081620000789190620004da565b50604051620052653803806200526583398181016040528101906200009e919062000725565b6040518060400160405280601281526020017f506f6c79676f6e4e616d655365727669636500000000000000000000000000008152506040518060400160405280600381526020017f504e53000000000000000000000000000000000000000000000000000000000081525081600090816200011b9190620004da565b5080600190816200012d9190620004da565b5050508060089081620001419190620004da565b506200018d6040518060400160405280601181526020017f436f6e73747275637420537563636573730000000000000000000000000000008152506200019460201b620014821760201c565b50620007ec565b6200023481604051602401620001ab9190620007c8565b6040516020818303038152906040527f41304fac000000000000000000000000000000000000000000000000000000007bffffffffffffffffffffffffffffffffffffffffffffffffffffffff19166020820180517bffffffffffffffffffffffffffffffffffffffffffffffffffffffff83818316178352505050506200023760201b60201c565b50565b60008151905060006a636f6e736f6c652e6c6f679050602083016000808483855afa5050505050565b600081519050919050565b7f4e487b7100000000000000000000000000000000000000000000000000000000600052604160045260246000fd5b7f4e487b7100000000000000000000000000000000000000000000000000000000600052602260045260246000fd5b60006002820490506001821680620002e257607f821691505b602082108103620002f857620002f76200029a565b5b50919050565b60008190508160005260206000209050919050565b60006020601f8301049050919050565b600082821b905092915050565b600060088302620003627fffffffffffffffffffffffffffffffffffffffffffffffffffffffffffffffff8262000323565b6200036e868362000323565b95508019841693508086168417925050509392505050565b6000819050919050565b6000819050919050565b6000620003bb620003b5620003af8462000386565b62000390565b62000386565b9050919050565b6000819050919050565b620003d7836200039a565b620003ef620003e682620003c2565b84845462000330565b825550505050565b600090565b62000406620003f7565b62000413818484620003cc565b505050565b5b818110156200043b576200042f600082620003fc565b60018101905062000419565b5050565b601f8211156200048a576200045481620002fe565b6200045f8462000313565b810160208510156200046f578190505b620004876200047e8562000313565b83018262000418565b50505b505050565b600082821c905092915050565b6000620004af600019846008026200048f565b1980831691505092915050565b6000620004ca83836200049c565b9150826002028217905092915050565b620004e58262000260565b67ffffffffffffffff8111156200050157620005006200026b565b5b6200050d8254620002c9565b6200051a8282856200043f565b600060209050601f8311600181146200055257600084156200053d578287015190505b620005498582620004bc565b865550620005b9565b601f1984166200056286620002fe565b60005b828110156200058c5784890151825560018201915060208501945060208101905062000565565b86831015620005ac5784890151620005a8601f8916826200049c565b8355505b6001600288020188555050505b505050505050565b6000604051905090565b600080fd5b600080fd5b600080fd5b600080fd5b6000601f19601f8301169050919050565b620005fb82620005df565b810181811067ffffffffffffffff821117156200061d576200061c6200026b565b5b80604052505050565b600062000632620005c1565b9050620006408282620005f0565b919050565b600067ffffffffffffffff8211156200066357620006626200026b565b5b6200066e82620005df565b9050602081019050919050565b60005b838110156200069b5780820151818401526020810190506200067e565b60008484015250505050565b6000620006be620006b88462000645565b62000626565b905082815260208101848484011115620006dd57620006dc620005da565b5b620006ea8482856200067b565b509392505050565b600082601f8301126200070a5762000709620005d5565b5b81516200071c848260208601620006a7565b91505092915050565b6000602082840312156200073e576200073d620005cb565b5b600082015167ffffffffffffffff8111156200075f576200075e620005d0565b5b6200076d84828501620006f2565b91505092915050565b600082825260208201905092915050565b6000620007948262000260565b620007a0818562000776565b9350620007b28185602086016200067b565b620007bd81620005df565b840191505092915050565b60006020820190508181036000830152620007e4818462000787565b905092915050565b6141fe80620007fc6000396000f3fe60806040526004361061012a5760003560e01c806370a08231116100ab578063bf40fac11161006f578063bf40fac114610428578063c1880a9814610465578063c87b56dd1461048e578063e985e9c5146104cb578063f2c298be14610508578063fe2c6198146105245761012a565b806370a08231146103315780638db966f81461036e57806395d89b41146103ab578063a22cb465146103d6578063b88d4fde146103ff5761012a565b806323b872dd116100f257806323b872dd1461023a5780632d5514321461026357806342842e0e1461028e578063541e771d146102b75780636352211e146102f45761012a565b806301ffc9a71461012f57806306fdde031461016c578063081812fc14610197578063095ea7b3146101d457806311dd8845146101fd575b600080fd5b34801561013b57600080fd5b50610156600480360381019061015191906127f1565b610561565b6040516101639190612839565b60405180910390f35b34801561017857600080fd5b50610181610643565b60405161018e91906128e4565b60405180910390f35b3480156101a357600080fd5b506101be60048036038101906101b9919061293c565b6106d5565b6040516101cb91906129aa565b60405180910390f35b3480156101e057600080fd5b506101fb60048036038101906101f691906129f1565b61071b565b005b34801561020957600080fd5b50610224600480360381019061021f9190612a96565b610832565b60405161023191906128e4565b60405180910390f35b34801561024657600080fd5b50610261600480360381019061025c9190612ae3565b6108e5565b005b34801561026f57600080fd5b50610278610945565b60405161028591906128e4565b60405180910390f35b34801561029a57600080fd5b506102b560048036038101906102b09190612ae3565b6109d3565b005b3480156102c357600080fd5b506102de60048036038101906102d99190612c66565b6109f3565b6040516102eb91906128e4565b60405180910390f35b34801561030057600080fd5b5061031b6004803603810190610316919061293c565b610aa9565b60405161032891906129aa565b60405180910390f35b34801561033d57600080fd5b5061035860048036038101906103539190612caf565b610b5a565b6040516103659190612ceb565b60405180910390f35b34801561037a57600080fd5b5061039560048036038101906103909190612c66565b610c11565b6040516103a291906129aa565b60405180910390f35b3480156103b757600080fd5b506103c0610c5a565b6040516103cd91906128e4565b60405180910390f35b3480156103e257600080fd5b506103fd60048036038101906103f89190612d32565b610cec565b005b34801561040b57600080fd5b5061042660048036038101906104219190612e13565b610d02565b005b34801561043457600080fd5b5061044f600480360381019061044a9190612a96565b610d64565b60405161045c91906129aa565b60405180910390f35b34801561047157600080fd5b5061048c60048036038101906104879190612e96565b610daf565b005b34801561049a57600080fd5b506104b560048036038101906104b0919061293c565b610e5d565b6040516104c291906128e4565b60405180910390f35b3480156104d757600080fd5b506104f260048036038101906104ed9190612f17565b610f6f565b6040516104ff9190612839565b60405180910390f35b610522600480360381019061051d9190612a96565b611003565b005b34801561053057600080fd5b5061054b60048036038101906105469190612a96565b6113e1565b6040516105589190612ceb565b60405180910390f35b60007f80ac58cd000000000000000000000000000000000000000000000000000000007bffffffffffffffffffffffffffffffffffffffffffffffffffffffff1916827bffffffffffffffffffffffffffffffffffffffffffffffffffffffff1916148061062c57507f5b5e139f000000000000000000000000000000000000000000000000000000007bffffffffffffffffffffffffffffffffffffffffffffffffffffffff1916827bffffffffffffffffffffffffffffffffffffffffffffffffffffffff1916145b8061063c575061063b8261151b565b5b9050919050565b60606000805461065290612f86565b80601f016020809104026020016040519081016040528092919081815260200182805461067e90612f86565b80156106cb5780601f106106a0576101008083540402835291602001916106cb565b820191906000526020600020905b8154815290600101906020018083116106ae57829003601f168201915b5050505050905090565b60006106e082611585565b6004600083815260200190815260200160002060009054906101000a900473ffffffffffffffffffffffffffffffffffffffff169050919050565b600061072682610aa9565b90508073ffffffffffffffffffffffffffffffffffffffff168373ffffffffffffffffffffffffffffffffffffffff1603610796576040517f08c379a000000000000000000000000000000000000000000000000000000000815260040161078d90613029565b60405180910390fd5b8073ffffffffffffffffffffffffffffffffffffffff166107b56115d0565b73ffffffffffffffffffffffffffffffffffffffff1614806107e457506107e3816107de6115d0565b610f6f565b5b610823576040517f08c379a000000000000000000000000000000000000000000000000000000000815260040161081a906130bb565b60405180910390fd5b61082d83836115d8565b505050565b6060600c838360405161084692919061310b565b9081526020016040518091039020805461085f90612f86565b80601f016020809104026020016040519081016040528092919081815260200182805461088b90612f86565b80156108d85780601f106108ad576101008083540402835291602001916108d8565b820191906000526020600020905b8154815290600101906020018083116108bb57829003601f168201915b5050505050905092915050565b6108f66108f06115d0565b82611691565b610935576040517f08c379a000000000000000000000000000000000000000000000000000000000815260040161092c90613196565b60405180910390fd5b610940838383611726565b505050565b6008805461095290612f86565b80601f016020809104026020016040519081016040528092919081815260200182805461097e90612f86565b80156109cb5780601f106109a0576101008083540402835291602001916109cb565b820191906000526020600020905b8154815290600101906020018083116109ae57829003601f168201915b505050505081565b6109ee83838360405180602001604052806000815250610d02565b505050565b600c818051602081018201805184825260208301602085012081835280955050505050506000915090508054610a2890612f86565b80601f0160208091040260200160405190810160405280929190818152602001828054610a5490612f86565b8015610aa15780601f10610a7657610100808354040283529160200191610aa1565b820191906000526020600020905b815481529060010190602001808311610a8457829003601f168201915b505050505081565b6000806002600084815260200190815260200160002060009054906101000a900473ffffffffffffffffffffffffffffffffffffffff169050600073ffffffffffffffffffffffffffffffffffffffff168173ffffffffffffffffffffffffffffffffffffffff1603610b51576040517f08c379a0000000000000000000000000000000000000000000000000000000008152600401610b4890613202565b60405180910390fd5b80915050919050565b60008073ffffffffffffffffffffffffffffffffffffffff168273ffffffffffffffffffffffffffffffffffffffff1603610bca576040517f08c379a0000000000000000000000000000000000000000000000000000000008152600401610bc190613294565b60405180910390fd5b600360008373ffffffffffffffffffffffffffffffffffffffff1673ffffffffffffffffffffffffffffffffffffffff168152602001908152602001600020549050919050565b600b818051602081018201805184825260208301602085012081835280955050505050506000915054906101000a900473ffffffffffffffffffffffffffffffffffffffff1681565b606060018054610c6990612f86565b80601f0160208091040260200160405190810160405280929190818152602001828054610c9590612f86565b8015610ce25780601f10610cb757610100808354040283529160200191610ce2565b820191906000526020600020905b815481529060010190602001808311610cc557829003601f168201915b5050505050905090565b610cfe610cf76115d0565b838361198c565b5050565b610d13610d0d6115d0565b83611691565b610d52576040517f08c379a0000000000000000000000000000000000000000000000000000000008152600401610d4990613196565b60405180910390fd5b610d5e84848484611af8565b50505050565b6000600b8383604051610d7892919061310b565b908152602001604051809103902060009054906101000a900473ffffffffffffffffffffffffffffffffffffffff16905092915050565b3373ffffffffffffffffffffffffffffffffffffffff16600b8585604051610dd892919061310b565b908152602001604051809103902060009054906101000a900473ffffffffffffffffffffffffffffffffffffffff1673ffffffffffffffffffffffffffffffffffffffff1614610e2757600080fd5b8181600c8686604051610e3b92919061310b565b90815260200160405180910390209182610e5692919061346b565b5050505050565b6060610e6882611585565b6000600660008481526020019081526020016000208054610e8890612f86565b80601f0160208091040260200160405190810160405280929190818152602001828054610eb490612f86565b8015610f015780601f10610ed657610100808354040283529160200191610f01565b820191906000526020600020905b815481529060010190602001808311610ee457829003601f168201915b505050505090506000610f12611b54565b90506000815103610f27578192505050610f6a565b600082511115610f5c578082604051602001610f4492919061356c565b60405160208183030381529060405292505050610f6a565b610f6584611b6b565b925050505b919050565b6000600560008473ffffffffffffffffffffffffffffffffffffffff1673ffffffffffffffffffffffffffffffffffffffff16815260200190815260200160002060008373ffffffffffffffffffffffffffffffffffffffff1673ffffffffffffffffffffffffffffffffffffffff16815260200190815260200160002060009054906101000a900460ff16905092915050565b600073ffffffffffffffffffffffffffffffffffffffff16600b838360405161102d92919061310b565b908152602001604051809103902060009054906101000a900473ffffffffffffffffffffffffffffffffffffffff1673ffffffffffffffffffffffffffffffffffffffff161461107c57600080fd5b600061108883836113e1565b9050803410156110cd576040517f08c379a00000000000000000000000000000000000000000000000000000000081526004016110c4906135dc565b60405180910390fd5b6000838360086040516020016110e5939291906136cb565b60405160208183030381529060405290506000600982600a60405160200161110f939291906136fc565b6040516020818303038152906040529050600061112c6007611bd3565b9050600061117d87878080601f016020809104026020016040519081016040528093929190818152602001838380828437600081840152601f19601f82011690508083019250505050505050611be1565b9050600061118a82611d96565b905061127e6040518060600160405280603181526020016141586031913989898080601f016020809104026020016040519081016040528093929190818152602001838380828437600081840152601f19601f82011690508083019250505050505050600880546111fa90612f86565b80601f016020809104026020016040519081016040528092919081815260200182805461122690612f86565b80156112735780601f1061124857610100808354040283529160200191611273565b820191906000526020600020905b81548152906001019060200180831161125657829003601f168201915b505050505086611ef6565b60006112b48661128d87611f98565b846040516020016112a0939291906138a9565b604051602081830303815290604052611f98565b90506000816040516020016112c99190613952565b60405160208183030381529060405290506113196040518060400160405280600e81526020017f46696e616c20746f6b656e5552490000000000000000000000000000000000008152508261212f565b61132333866121cb565b61132d85826121e9565b33600b8b8b60405161134092919061310b565b908152602001604051809103902060006101000a81548173ffffffffffffffffffffffffffffffffffffffff021916908373ffffffffffffffffffffffffffffffffffffffff1602179055506113cb6040518060400160405280601881526020017f257320686173207265676965726564206120646f6d61696e000000000000000081525033612256565b6113d560076122f2565b50505050505050505050565b60008061143184848080601f016020809104026020016040519081016040528093929190818152602001838380828437600081840152601f19601f82011690508083019250505050505050611be1565b90506000811161144057600080fd5b60038103611458576611c37937e0800091505061147c565b6004810361147057660aa87bee53800091505061147c565b66038d7ea4c680009150505b92915050565b6115188160405160240161149691906128e4565b6040516020818303038152906040527f41304fac000000000000000000000000000000000000000000000000000000007bffffffffffffffffffffffffffffffffffffffffffffffffffffffff19166020820180517bffffffffffffffffffffffffffffffffffffffffffffffffffffffff8381831617835250505050612308565b50565b60007f01ffc9a7000000000000000000000000000000000000000000000000000000007bffffffffffffffffffffffffffffffffffffffffffffffffffffffff1916827bffffffffffffffffffffffffffffffffffffffffffffffffffffffff1916149050919050565b61158e81612331565b6115cd576040517f08c379a00000000000000000000000000000000000000000000000000000000081526004016115c490613202565b60405180910390fd5b50565b600033905090565b816004600083815260200190815260200160002060006101000a81548173ffffffffffffffffffffffffffffffffffffffff021916908373ffffffffffffffffffffffffffffffffffffffff160217905550808273ffffffffffffffffffffffffffffffffffffffff1661164b83610aa9565b73ffffffffffffffffffffffffffffffffffffffff167f8c5be1e5ebec7d5bd14f71427d1e84f3dd0314c0f7b2291e5b200ac8c7c3b92560405160405180910390a45050565b60008061169d83610aa9565b90508073ffffffffffffffffffffffffffffffffffffffff168473ffffffffffffffffffffffffffffffffffffffff1614806116df57506116de8185610f6f565b5b8061171d57508373ffffffffffffffffffffffffffffffffffffffff16611705846106d5565b73ffffffffffffffffffffffffffffffffffffffff16145b91505092915050565b8273ffffffffffffffffffffffffffffffffffffffff1661174682610aa9565b73ffffffffffffffffffffffffffffffffffffffff161461179c576040517f08c379a0000000000000000000000000000000000000000000000000000000008152600401611793906139e6565b60405180910390fd5b600073ffffffffffffffffffffffffffffffffffffffff168273ffffffffffffffffffffffffffffffffffffffff160361180b576040517f08c379a000000000000000000000000000000000000000000000000000000000815260040161180290613a78565b60405180910390fd5b61181683838361239d565b6118216000826115d8565b6001600360008573ffffffffffffffffffffffffffffffffffffffff1673ffffffffffffffffffffffffffffffffffffffff16815260200190815260200160002060008282546118719190613ac7565b925050819055506001600360008473ffffffffffffffffffffffffffffffffffffffff1673ffffffffffffffffffffffffffffffffffffffff16815260200190815260200160002060008282546118c89190613afb565b92505081905550816002600083815260200190815260200160002060006101000a81548173ffffffffffffffffffffffffffffffffffffffff021916908373ffffffffffffffffffffffffffffffffffffffff160217905550808273ffffffffffffffffffffffffffffffffffffffff168473ffffffffffffffffffffffffffffffffffffffff167fddf252ad1be2c89b69c2b068fc378daa952ba7f163c4a11628f55a4df523b3ef60405160405180910390a46119878383836123a2565b505050565b8173ffffffffffffffffffffffffffffffffffffffff168373ffffffffffffffffffffffffffffffffffffffff16036119fa576040517f08c379a00000000000000000000000000000000000000000000000000000000081526004016119f190613b7b565b60405180910390fd5b80600560008573ffffffffffffffffffffffffffffffffffffffff1673ffffffffffffffffffffffffffffffffffffffff16815260200190815260200160002060008473ffffffffffffffffffffffffffffffffffffffff1673ffffffffffffffffffffffffffffffffffffffff16815260200190815260200160002060006101000a81548160ff0219169083151502179055508173ffffffffffffffffffffffffffffffffffffffff168373ffffffffffffffffffffffffffffffffffffffff167f17307eab39ab6107e8899845ad3d59bd9653f200f220920489ca2b5937696c3183604051611aeb9190612839565b60405180910390a3505050565b611b03848484611726565b611b0f848484846123a7565b611b4e576040517f08c379a0000000000000000000000000000000000000000000000000000000008152600401611b4590613c0d565b60405180910390fd5b50505050565b606060405180602001604052806000815250905090565b6060611b7682611585565b6000611b80611b54565b90506000815111611ba05760405180602001604052806000815250611bcb565b80611baa84611d96565b604051602001611bbb92919061356c565b6040516020818303038152906040525b915050919050565b600081600001549050919050565b60008060008084519050600092505b80821015611d8b576000858381518110611c0d57611c0c613c2d565b5b602001015160f81c60f81b9050608060f81b817effffffffffffffffffffffffffffffffffffffffffffffffffffffffffffff19161015611c5c57600183611c559190613afb565b9250611d77565b60e060f81b817effffffffffffffffffffffffffffffffffffffffffffffffffffffffffffff19161015611c9e57600283611c979190613afb565b9250611d76565b60f060f81b817effffffffffffffffffffffffffffffffffffffffffffffffffffffffffffff19161015611ce057600383611cd99190613afb565b9250611d75565b60f8801b817effffffffffffffffffffffffffffffffffffffffffffffffffffffffffffff19161015611d2157600483611d1a9190613afb565b9250611d74565b60fc60f81b817effffffffffffffffffffffffffffffffffffffffffffffffffffffffffffff19161015611d6357600583611d5c9190613afb565b9250611d73565b600683611d709190613afb565b92505b5b5b5b5b508280611d8390613c5c565b935050611bf0565b829350505050919050565b606060008203611ddd576040518060400160405280600181526020017f30000000000000000000000000000000000000000000000000000000000000008152509050611ef1565b600082905060005b60008214611e0f578080611df890613c5c565b915050600a82611e089190613cd3565b9150611de5565b60008167ffffffffffffffff811115611e2b57611e2a612b3b565b5b6040519080825280601f01601f191660200182016040528015611e5d5781602001600182028036833780820191505090505b5090505b60008514611eea57600182611e769190613ac7565b9150600a85611e859190613d04565b6030611e919190613afb565b60f81b818381518110611ea757611ea6613c2d565b5b60200101907effffffffffffffffffffffffffffffffffffffffffffffffffffffffffffff1916908160001a905350600a85611ee39190613cd3565b9450611e61565b8093505050505b919050565b611f9284848484604051602401611f109493929190613d35565b6040516020818303038152906040527f8eafb02b000000000000000000000000000000000000000000000000000000007bffffffffffffffffffffffffffffffffffffffffffffffffffffffff19166020820180517bffffffffffffffffffffffffffffffffffffffffffffffffffffffff8381831617835250505050612308565b50505050565b606060008251905060008103611fc0576040518060200160405280600081525091505061212a565b60006003600283611fd19190613afb565b611fdb9190613cd3565b6004611fe79190613d8f565b90506000602082611ff89190613afb565b67ffffffffffffffff81111561201157612010612b3b565b5b6040519080825280601f01601f1916602001820160405280156120435781602001600182028036833780820191505090505b5090506000604051806060016040528060408152602001614189604091399050600181016020830160005b868110156120e75760038101905062ffffff818a015116603f8160121c168401518060081b905060ff603f83600c1c1686015116810190508060081b905060ff603f8360061c1686015116810190508060081b905060ff603f831686015116810190508060e01b9050808452600484019350505061206e565b50600386066001811461210157600281146121115761211c565b613d3d60f01b600283035261211c565b603d60f81b60018303525b508484525050819450505050505b919050565b6121c78282604051602401612145929190613dd1565b6040516020818303038152906040527f4b5c4277000000000000000000000000000000000000000000000000000000007bffffffffffffffffffffffffffffffffffffffffffffffffffffffff19166020820180517bffffffffffffffffffffffffffffffffffffffffffffffffffffffff8381831617835250505050612308565b5050565b6121e582826040518060200160405280600081525061252e565b5050565b6121f282612331565b612231576040517f08c379a000000000000000000000000000000000000000000000000000000000815260040161222890613e7a565b60405180910390fd5b806006600084815260200190815260200160002090816122519190613e9a565b505050565b6122ee828260405160240161226c929190613f6c565b6040516020818303038152906040527f319af333000000000000000000000000000000000000000000000000000000007bffffffffffffffffffffffffffffffffffffffffffffffffffffffff19166020820180517bffffffffffffffffffffffffffffffffffffffffffffffffffffffff8381831617835250505050612308565b5050565b6001816000016000828254019250508190555050565b60008151905060006a636f6e736f6c652e6c6f679050602083016000808483855afa5050505050565b60008073ffffffffffffffffffffffffffffffffffffffff166002600084815260200190815260200160002060009054906101000a900473ffffffffffffffffffffffffffffffffffffffff1673ffffffffffffffffffffffffffffffffffffffff1614159050919050565b505050565b505050565b60006123c88473ffffffffffffffffffffffffffffffffffffffff16612589565b15612521578373ffffffffffffffffffffffffffffffffffffffff1663150b7a026123f16115d0565b8786866040518563ffffffff1660e01b81526004016124139493929190613ff1565b6020604051808303816000875af192505050801561244f57506040513d601f19601f8201168201806040525081019061244c9190614052565b60015b6124d1573d806000811461247f576040519150601f19603f3d011682016040523d82523d6000602084013e612484565b606091505b5060008151036124c9576040517f08c379a00000000000000000000000000000000000000000000000000000000081526004016124c090613c0d565b60405180910390fd5b805181602001fd5b63150b7a0260e01b7bffffffffffffffffffffffffffffffffffffffffffffffffffffffff1916817bffffffffffffffffffffffffffffffffffffffffffffffffffffffff191614915050612526565b600190505b949350505050565b61253883836125ac565b61254560008484846123a7565b612584576040517f08c379a000000000000000000000000000000000000000000000000000000000815260040161257b90613c0d565b60405180910390fd5b505050565b6000808273ffffffffffffffffffffffffffffffffffffffff163b119050919050565b600073ffffffffffffffffffffffffffffffffffffffff168273ffffffffffffffffffffffffffffffffffffffff160361261b576040517f08c379a0000000000000000000000000000000000000000000000000000000008152600401612612906140cb565b60405180910390fd5b61262481612331565b15612664576040517f08c379a000000000000000000000000000000000000000000000000000000000815260040161265b90614137565b60405180910390fd5b6126706000838361239d565b6001600360008473ffffffffffffffffffffffffffffffffffffffff1673ffffffffffffffffffffffffffffffffffffffff16815260200190815260200160002060008282546126c09190613afb565b92505081905550816002600083815260200190815260200160002060006101000a81548173ffffffffffffffffffffffffffffffffffffffff021916908373ffffffffffffffffffffffffffffffffffffffff160217905550808273ffffffffffffffffffffffffffffffffffffffff16600073ffffffffffffffffffffffffffffffffffffffff167fddf252ad1be2c89b69c2b068fc378daa952ba7f163c4a11628f55a4df523b3ef60405160405180910390a4612781600083836123a2565b5050565b6000604051905090565b600080fd5b600080fd5b60007fffffffff0000000000000000000000000000000000000000000000000000000082169050919050565b6127ce81612799565b81146127d957600080fd5b50565b6000813590506127eb816127c5565b92915050565b6000602082840312156128075761280661278f565b5b6000612815848285016127dc565b91505092915050565b60008115159050919050565b6128338161281e565b82525050565b600060208201905061284e600083018461282a565b92915050565b600081519050919050565b600082825260208201905092915050565b60005b8381101561288e578082015181840152602081019050612873565b60008484015250505050565b6000601f19601f8301169050919050565b60006128b682612854565b6128c0818561285f565b93506128d0818560208601612870565b6128d98161289a565b840191505092915050565b600060208201905081810360008301526128fe81846128ab565b905092915050565b6000819050919050565b61291981612906565b811461292457600080fd5b50565b60008135905061293681612910565b92915050565b6000602082840312156129525761295161278f565b5b600061296084828501612927565b91505092915050565b600073ffffffffffffffffffffffffffffffffffffffff82169050919050565b600061299482612969565b9050919050565b6129a481612989565b82525050565b60006020820190506129bf600083018461299b565b92915050565b6129ce81612989565b81146129d957600080fd5b50565b6000813590506129eb816129c5565b92915050565b60008060408385031215612a0857612a0761278f565b5b6000612a16858286016129dc565b9250506020612a2785828601612927565b9150509250929050565b600080fd5b600080fd5b600080fd5b60008083601f840112612a5657612a55612a31565b5b8235905067ffffffffffffffff811115612a7357612a72612a36565b5b602083019150836001820283011115612a8f57612a8e612a3b565b5b9250929050565b60008060208385031215612aad57612aac61278f565b5b600083013567ffffffffffffffff811115612acb57612aca612794565b5b612ad785828601612a40565b92509250509250929050565b600080600060608486031215612afc57612afb61278f565b5b6000612b0a868287016129dc565b9350506020612b1b868287016129dc565b9250506040612b2c86828701612927565b9150509250925092565b600080fd5b7f4e487b7100000000000000000000000000000000000000000000000000000000600052604160045260246000fd5b612b738261289a565b810181811067ffffffffffffffff82111715612b9257612b91612b3b565b5b80604052505050565b6000612ba5612785565b9050612bb18282612b6a565b919050565b600067ffffffffffffffff821115612bd157612bd0612b3b565b5b612bda8261289a565b9050602081019050919050565b82818337600083830152505050565b6000612c09612c0484612bb6565b612b9b565b905082815260208101848484011115612c2557612c24612b36565b5b612c30848285612be7565b509392505050565b600082601f830112612c4d57612c4c612a31565b5b8135612c5d848260208601612bf6565b91505092915050565b600060208284031215612c7c57612c7b61278f565b5b600082013567ffffffffffffffff811115612c9a57612c99612794565b5b612ca684828501612c38565b91505092915050565b600060208284031215612cc557612cc461278f565b5b6000612cd3848285016129dc565b91505092915050565b612ce581612906565b82525050565b6000602082019050612d006000830184612cdc565b92915050565b612d0f8161281e565b8114612d1a57600080fd5b50565b600081359050612d2c81612d06565b92915050565b60008060408385031215612d4957612d4861278f565b5b6000612d57858286016129dc565b9250506020612d6885828601612d1d565b9150509250929050565b600067ffffffffffffffff821115612d8d57612d8c612b3b565b5b612d968261289a565b9050602081019050919050565b6000612db6612db184612d72565b612b9b565b905082815260208101848484011115612dd257612dd1612b36565b5b612ddd848285612be7565b509392505050565b600082601f830112612dfa57612df9612a31565b5b8135612e0a848260208601612da3565b91505092915050565b60008060008060808587031215612e2d57612e2c61278f565b5b6000612e3b878288016129dc565b9450506020612e4c878288016129dc565b9350506040612e5d87828801612927565b925050606085013567ffffffffffffffff811115612e7e57612e7d612794565b5b612e8a87828801612de5565b91505092959194509250565b60008060008060408587031215612eb057612eaf61278f565b5b600085013567ffffffffffffffff811115612ece57612ecd612794565b5b612eda87828801612a40565b9450945050602085013567ffffffffffffffff811115612efd57612efc612794565b5b612f0987828801612a40565b925092505092959194509250565b60008060408385031215612f2e57612f2d61278f565b5b6000612f3c858286016129dc565b9250506020612f4d858286016129dc565b9150509250929050565b7f4e487b7100000000000000000000000000000000000000000000000000000000600052602260045260246000fd5b60006002820490506001821680612f9e57607f821691505b602082108103612fb157612fb0612f57565b5b50919050565b7f4552433732313a20617070726f76616c20746f2063757272656e74206f776e6560008201527f7200000000000000000000000000000000000000000000000000000000000000602082015250565b600061301360218361285f565b915061301e82612fb7565b604082019050919050565b6000602082019050818103600083015261304281613006565b9050919050565b7f4552433732313a20617070726f76652063616c6c6572206973206e6f7420746f60008201527f6b656e206f776e6572206e6f7220617070726f76656420666f7220616c6c0000602082015250565b60006130a5603e8361285f565b91506130b082613049565b604082019050919050565b600060208201905081810360008301526130d481613098565b9050919050565b600081905092915050565b60006130f283856130db565b93506130ff838584612be7565b82840190509392505050565b60006131188284866130e6565b91508190509392505050565b7f4552433732313a2063616c6c6572206973206e6f7420746f6b656e206f776e6560008201527f72206e6f7220617070726f766564000000000000000000000000000000000000602082015250565b6000613180602e8361285f565b915061318b82613124565b604082019050919050565b600060208201905081810360008301526131af81613173565b9050919050565b7f4552433732313a20696e76616c696420746f6b656e2049440000000000000000600082015250565b60006131ec60188361285f565b91506131f7826131b6565b602082019050919050565b6000602082019050818103600083015261321b816131df565b9050919050565b7f4552433732313a2061646472657373207a65726f206973206e6f74206120766160008201527f6c6964206f776e65720000000000000000000000000000000000000000000000602082015250565b600061327e60298361285f565b915061328982613222565b604082019050919050565b600060208201905081810360008301526132ad81613271565b9050919050565b600082905092915050565b60008190508160005260206000209050919050565b60006020601f8301049050919050565b600082821b905092915050565b6000600883026133217fffffffffffffffffffffffffffffffffffffffffffffffffffffffffffffffff826132e4565b61332b86836132e4565b95508019841693508086168417925050509392505050565b6000819050919050565b600061336861336361335e84612906565b613343565b612906565b9050919050565b6000819050919050565b6133828361334d565b61339661338e8261336f565b8484546132f1565b825550505050565b600090565b6133ab61339e565b6133b6818484613379565b505050565b5b818110156133da576133cf6000826133a3565b6001810190506133bc565b5050565b601f82111561341f576133f0816132bf565b6133f9846132d4565b81016020851015613408578190505b61341c613414856132d4565b8301826133bb565b50505b505050565b600082821c905092915050565b600061344260001984600802613424565b1980831691505092915050565b600061345b8383613431565b9150826002028217905092915050565b61347583836132b4565b67ffffffffffffffff81111561348e5761348d612b3b565b5b6134988254612f86565b6134a38282856133de565b6000601f8311600181146134d257600084156134c0578287013590505b6134ca858261344f565b865550613532565b601f1984166134e0866132bf565b60005b82811015613508578489013582556001820191506020850194506020810190506134e3565b868310156135255784890135613521601f891682613431565b8355505b6001600288020188555050505b50505050505050565b600061354682612854565b61355081856130db565b9350613560818560208601612870565b80840191505092915050565b6000613578828561353b565b9150613584828461353b565b91508190509392505050565b7f4e6f7420656e6f756768204d4154494300000000000000000000000000000000600082015250565b60006135c660108361285f565b91506135d182613590565b602082019050919050565b600060208201905081810360008301526135f5816135b9565b9050919050565b7f2e00000000000000000000000000000000000000000000000000000000000000600082015250565b60006136326001836130db565b915061363d826135fc565b600182019050919050565b6000815461365581612f86565b61365f81866130db565b9450600182166000811461367a576001811461368f576136c2565b60ff19831686528115158202860193506136c2565b613698856132bf565b60005b838110156136ba5781548189015260018201915060208101905061369b565b838801955050505b50505092915050565b60006136d88285876130e6565b91506136e382613625565b91506136ef8284613648565b9150819050949350505050565b60006137088286613648565b9150613714828561353b565b91506137208284613648565b9150819050949350505050565b7f7b226e616d65223a202200000000000000000000000000000000000000000000600082015250565b6000613763600a836130db565b915061376e8261372d565b600a82019050919050565b7f222c20226465736372697074696f6e223a20224120646f6d61696e206f6e207460008201527f6865204e696e6a61206e616d652073657276696365222c2022696d616765223a60208201527f2022646174613a696d6167652f7376672b786d6c3b6261736536342c00000000604082015250565b60006137fb605c836130db565b915061380682613779565b605c82019050919050565b7f222c226c656e677468223a220000000000000000000000000000000000000000600082015250565b6000613847600c836130db565b915061385282613811565b600c82019050919050565b7f227d000000000000000000000000000000000000000000000000000000000000600082015250565b60006138936002836130db565b915061389e8261385d565b600282019050919050565b60006138b482613756565b91506138c0828661353b565b91506138cb826137ee565b91506138d7828561353b565b91506138e28261383a565b91506138ee828461353b565b91506138f982613886565b9150819050949350505050565b7f646174613a6170706c69636174696f6e2f6a736f6e3b6261736536342c000000600082015250565b600061393c601d836130db565b915061394782613906565b601d82019050919050565b600061395d8261392f565b9150613969828461353b565b915081905092915050565b7f4552433732313a207472616e736665722066726f6d20696e636f72726563742060008201527f6f776e6572000000000000000000000000000000000000000000000000000000602082015250565b60006139d060258361285f565b91506139db82613974565b604082019050919050565b600060208201905081810360008301526139ff816139c3565b9050919050565b7f4552433732313a207472616e7366657220746f20746865207a65726f2061646460008201527f7265737300000000000000000000000000000000000000000000000000000000602082015250565b6000613a6260248361285f565b9150613a6d82613a06565b604082019050919050565b60006020820190508181036000830152613a9181613a55565b9050919050565b7f4e487b7100000000000000000000000000000000000000000000000000000000600052601160045260246000fd5b6000613ad282612906565b9150613add83612906565b9250828203905081811115613af557613af4613a98565b5b92915050565b6000613b0682612906565b9150613b1183612906565b9250828201905080821115613b2957613b28613a98565b5b92915050565b7f4552433732313a20617070726f766520746f2063616c6c657200000000000000600082015250565b6000613b6560198361285f565b9150613b7082613b2f565b602082019050919050565b60006020820190508181036000830152613b9481613b58565b9050919050565b7f4552433732313a207472616e7366657220746f206e6f6e20455243373231526560008201527f63656976657220696d706c656d656e7465720000000000000000000000000000602082015250565b6000613bf760328361285f565b9150613c0282613b9b565b604082019050919050565b60006020820190508181036000830152613c2681613bea565b9050919050565b7f4e487b7100000000000000000000000000000000000000000000000000000000600052603260045260246000fd5b6000613c6782612906565b91507fffffffffffffffffffffffffffffffffffffffffffffffffffffffffffffffff8203613c9957613c98613a98565b5b600182019050919050565b7f4e487b7100000000000000000000000000000000000000000000000000000000600052601260045260246000fd5b6000613cde82612906565b9150613ce983612906565b925082613cf957613cf8613ca4565b5b828204905092915050565b6000613d0f82612906565b9150613d1a83612906565b925082613d2a57613d29613ca4565b5b828206905092915050565b60006080820190508181036000830152613d4f81876128ab565b90508181036020830152613d6381866128ab565b90508181036040830152613d7781856128ab565b9050613d866060830184612cdc565b95945050505050565b6000613d9a82612906565b9150613da583612906565b9250828202613db381612906565b91508282048414831517613dca57613dc9613a98565b5b5092915050565b60006040820190508181036000830152613deb81856128ab565b90508181036020830152613dff81846128ab565b90509392505050565b7f45524337323155524953746f726167653a2055524920736574206f66206e6f6e60008201527f6578697374656e7420746f6b656e000000000000000000000000000000000000602082015250565b6000613e64602e8361285f565b9150613e6f82613e08565b604082019050919050565b60006020820190508181036000830152613e9381613e57565b9050919050565b613ea382612854565b67ffffffffffffffff811115613ebc57613ebb612b3b565b5b613ec68254612f86565b613ed18282856133de565b600060209050601f831160018114613f045760008415613ef2578287015190505b613efc858261344f565b865550613f64565b601f198416613f12866132bf565b60005b82811015613f3a57848901518255600182019150602085019450602081019050613f15565b86831015613f575784890151613f53601f891682613431565b8355505b6001600288020188555050505b505050505050565b60006040820190508181036000830152613f8681856128ab565b9050613f95602083018461299b565b9392505050565b600081519050919050565b600082825260208201905092915050565b6000613fc382613f9c565b613fcd8185613fa7565b9350613fdd818560208601612870565b613fe68161289a565b840191505092915050565b6000608082019050614006600083018761299b565b614013602083018661299b565b6140206040830185612cdc565b81810360608301526140328184613fb8565b905095945050505050565b60008151905061404c816127c5565b92915050565b6000602082840312156140685761406761278f565b5b60006140768482850161403d565b91505092915050565b7f4552433732313a206d696e7420746f20746865207a65726f2061646472657373600082015250565b60006140b560208361285f565b91506140c08261407f565b602082019050919050565b600060208201905081810360008301526140e4816140a8565b9050919050565b7f4552433732313a20746f6b656e20616c7265616479206d696e74656400000000600082015250565b6000614121601c8361285f565b915061412c826140eb565b602082019050919050565b6000602082019050818103600083015261415081614114565b905091905056fe5265676973746572696e672025732e2573206f6e2074686520636f6e7472616374207769746820746f6b656e49442025644142434445464748494a4b4c4d4e4f505152535455565758595a6162636465666768696a6b6c6d6e6f707172737475767778797a303132333435363738392b2fa26469706673582212208d10cf2dbe31213b6ce0ba6a418724343c5ab56774a8b25bcd8285c0a950b5aa64736f6c634300081100333c73766720786d6c6e733d22687474703a2f2f7777772e77332e6f72672f323030302f737667222077696474683d2232373022206865696768743d22323730222066696c6c3d226e6f6e65223e3c706174682066696c6c3d2275726c282342292220643d224d302030683237307632373048307a222f3e3c646566733e3c66696c7465722069643d22412220636f6c6f722d696e746572706f6c6174696f6e2d66696c746572733d2273524742222066696c746572556e6974733d227573657253706163654f6e55736522206865696768743d22323730222077696474683d22323730223e3c666544726f70536861646f772064783d2230222064793d22312220737464446576696174696f6e3d22322220666c6f6f642d6f7061636974793d222e323235222077696474683d223230302522206865696768743d2232303025222f3e3c2f66696c7465723e3c2f646566733e3c7061746820643d224d37322e3836332034322e393439632d2e3636382d2e3338372d312e3432362d2e35392d322e3139372d2e3539732d312e3532392e3230342d322e3139372e35396c2d31302e30383120362e3033322d362e383520332e3933342d31302e30383120362e303332632d2e3636382e3338372d312e3432362e35392d322e3139372e3539732d312e3532392d2e3230342d322e3139372d2e35396c2d382e3031332d342e37323161342e353220342e35322030203020312d312e3538392d312e363136632d2e3338342d2e3636352d2e3539342d312e3431382d2e3630382d322e313837762d392e3331632d2e3031332d2e3737352e3138352d312e3533382e3537322d322e32303861342e323520342e323520302030203120312e3632352d312e3539356c372e3838342d342e3539632e3636382d2e33383720312e3432362d2e353920322e3139372d2e353973312e3532392e32303420322e3139372e35396c372e38383420342e353961342e353220342e353220302030203120312e35383920312e363136632e3338342e3636352e35393420312e3431382e36303820322e31383776362e3033326c362e38352d342e303635762d362e303332632e3031332d2e3737352d2e3138352d312e3533382d2e3537322d322e32303861342e323520342e32352030203020302d312e3632352d312e3539354c34312e3435362032342e3539632d2e3636382d2e3338372d312e3432362d2e35392d322e3139372d2e3539732d312e3532392e3230342d322e3139372e35396c2d31342e38363420382e36353561342e323520342e32352030203020302d312e36323520312e353935632d2e3338372e36372d2e35383520312e3433342d2e35373220322e3230387631372e343431632d2e3031332e3737352e31383520312e3533382e35373220322e32303861342e323520342e323520302030203020312e36323520312e3539356c31342e38363420382e363535632e3636382e33383720312e3432362e353920322e3139372e353973312e3532392d2e32303420322e3139372d2e35396c31302e3038312d352e39303120362e38352d342e3036352031302e3038312d352e393031632e3636382d2e33383720312e3432362d2e353920322e3139372d2e353973312e3532392e32303420322e3139372e35396c372e38383420342e353961342e353220342e353220302030203120312e35383920312e363136632e3338342e3636352e35393420312e3431382e36303820322e31383776392e333131632e3031332e3737352d2e31383520312e3533382d2e35373220322e32303861342e323520342e32352030203020312d312e36323520312e3539356c2d372e38383420342e373231632d2e3636382e3338372d312e3432362e35392d322e3139372e3539732d312e3532392d2e3230342d322e3139372d2e35396c2d372e3838342d342e353961342e353220342e35322030203020312d312e3538392d312e363136632d2e3338352d2e3636352d2e3539342d312e3431382d2e3630382d322e313837762d362e3033326c2d362e383520342e30363576362e303332632d2e3031332e3737352e31383520312e3533382e35373220322e32303861342e323520342e323520302030203020312e36323520312e3539356c31342e38363420382e363535632e3636382e33383720312e3432362e353920322e3139372e353973312e3532392d2e32303420322e3139372d2e35396c31342e3836342d382e363535632e3635372d2e33393420312e3230342d2e393520312e3538392d312e363136732e3539342d312e3431382e3630392d322e3138375635352e353338632e3031332d2e3737352d2e3138352d312e3533382d2e3537322d322e32303861342e323520342e32352030203020302d312e3632352d312e3539356c2d31342e3939332d382e3738367a222066696c6c3d2223666666222f3e3c646566733e3c6c696e6561724772616469656e742069643d2242222078313d2230222079313d2230222078323d22323730222079323d2232373022206772616469656e74556e6974733d227573657253706163654f6e557365223e3c73746f702073746f702d636f6c6f723d2223636235656565222f3e3c73746f70206f66667365743d2231222073746f702d636f6c6f723d2223306364376534222073746f702d6f7061636974793d222e3939222f3e3c2f6c696e6561724772616469656e743e3c2f646566733e3c7465787420783d2233322e352220793d223233312220666f6e742d73697a653d223237222066696c6c3d2223666666222066696c7465723d2275726c282341292220666f6e742d66616d696c793d22506c7573204a616b617274612053616e732c44656a6156752053616e732c4e6f746f20436f6c6f7220456d6f6a692c4170706c6520436f6c6f7220456d6f6a692c73616e732d73657269662220666f6e742d7765696768743d22626f6c64223e",
  "linkReferences": {},
  "deployedLinkReferences": {}
}